:020000040800F2
:10000000B813002041080008AB020008AD02000848
:10001000B1020008B5020008B902000800000000A3
:10002000000000000000000000000000BD02000809
:10003000BF02000800000000C1020008C30200085F
:100040005B0800085B0800085B0800085B08000804
:100050005B0800085B0800085B0800085B080008F4
:100060005B0800085B0800085B0800085B080008E4
:100070005B0800085B0800085B0800085B080008D4
:100080005B0800085B0800085B0800085B080008C4
:100090005B0800085B0800085B0800085B080008B4
:1000A0005B0800085B0800085B0800085B080008A4
:1000B0005B080008C70500085B0800085B0800082B
:1000C0005B0800085B0800085B0800085B08000884
:1000D0005B0800085B0800085B0800085B08000874
:1000E0005B0800085B0800085B0800085B08000864
:1000F0005B0800085B0800085B0800085B08000854
:100100005B0800085B0800085B0800085B08000843
:100110005B0800085B0800085B0800085B08000833
:100120005B0800085B0800085B0800085B08000823
:1001300000F002F800F03AF80AA090E8000C8244BF
:100140008344AAF10107DA4501D100F02FF8AFF29C
:10015000090EBAE80F0013F0010F18BFFB1A43F0A5
:10016000010318477C3F00009C3F0000103A24BF69
:1001700078C878C1FAD8520724BF30C830C144BF0C
:1001800004680C607047000000230024002500264E
:10019000103A28BF78C1FBD8520728BF30C148BFEA
:1001A0000B6070471FB51FBD10B510BD03F068FF91
:1001B0001146FFF7F7FF00F019F803F086FF03B4CC
:1001C000FFF7F2FF03BC00F0B3FA0000EFF3098081
:1001D000704780F309887047EFF30880704780F319
:1001E0000888704740BA7047C0BA704700F05CF9A1
:1001F00041F61F4142F20F7000F0B8F900F0B6FA74
:100200004FF4165000F045FA4EE002F01DFE4CF699
:10021000CC42811A90422CD006DC80B1A0F540403F
:10022000A0F1C000A0BB2BE0A1F50850A0F1220076
:1002300098B1A0F58850A0F1110048BB0AE002F087
:100240001CFE30B103F036F918B14FF6FF7002F022
:10025000F0FD28E002F036FE25E002F0CBFE18B9F2
:10026000002002F0E6FD03E04FF6FF7002F0E1FD32
:1002700019E002F02BFF4FF6FF7002F0DAFD12E0FA
:1002800002F03FFF28B94FF6FF7002F0D2FD04E004
:1002900004E04FF6FF7002F0CCFD04E04FF6FF7073
:1002A00002F0C7FD00BF00BFAFE7704700BFFEE729
:1002B00000BFFEE700BFFEE700BFFEE770477047E4
:1002C000704770470CB50020019000906C480068A2
:1002D00040F480306A49086000BF6948006800F453
:1002E000003000900198401C0190009818B90198C6
:1002F000B0F5A06FF1D16248006800F4003010B191
:100300000120009001E0002000900098012843D1D6
:100310005C48006840F010005A49086008460068D0
:1003200020F0030008600846006840F00200086002
:10033000534840685249486008464068486008464B
:10034000406840F4806048600846406820F47C10B3
:1003500048600846406840F4F81048600846006865
:1003600040F08070086000BF4548006800F00070F1
:100370000028F9D04248406820F003004049486016
:100380000846406840F00200486000BF3C484068B2
:1003900000F00C000828F9D10CBD10B5FFF792FF52
:1003A00010BD10B53648006840F0010034490860BF
:1003B00008464068344908403149486008460068AA
:1003C000324908402E4908600846006820F4802021
:1003D00008600846406820F4FE0048604FF41F00A3
:1003E0008860FFF7DAFF4FF000602949086010BD10
:1003F00010B5002100200022214B5B6803F00C01A6
:1004000021B1042906D0082928D107E0214B224C2C
:10041000236027E0214B204C236023E0184B5B68CE
:1004200003F47010164B5B6803F48032022303EB75
:10043000904022B91A4B4343174C23600DE0104BF8
:100440005B6803F4003323B1124B4343124C236027
:1004500003E0124B4343104C236003E00D4B0E4C62
:10046000236000BF00BF064B5B68C3F303130D4C52
:10047000E15C094B1B68CB40074C236010BD0000BA
:1004800000100240002002400000FFF8FFFFF6FECF
:1004900008ED00E000127A00040000200024F400BF
:1004A00000093D000800002008B50121182000F0D7
:1004B00071FD4FF4F250ADF8000010208DF80300EC
:1004C00003208DF802006946264800F0A7FA0120B3
:1004D000ADF8000003208DF8020028208DF80300FD
:1004E0006946204800F09AFA01211E4800F045FBB9
:1004F0004FF480611B4800F03EFB4FF40071194837
:1005000000F03BFB4FF40061164800F036FB4FF45F
:100510008051144800F031FB4021124800F02DFBBF
:1005200040F20330ADF8000010208DF803000320E6
:100530008DF8020069460C4800F070FA01210A4863
:1005400000F01BFB0221084800F017FB4FF48071FC
:10055000054800F012FB4FF40071034800F00DFB5A
:1005600008BD000000100140000C01407FB50546A9
:100570000C460121022000F01AFDADF80850ADF83C
:1005800004400020ADF80A00ADF8060001A92A4891
:1005900001F03EF801221146274801F0B0FB1D2072
:1005A0008DF8000000208DF8010003208DF8020076
:1005B00001208DF80300684600F067F901211E480C
:1005C00001F082FB7FBD10B501211B4801F045FE03
:1005D00078B30121184801F051FE18480088401CEA
:1005E000164908801648006808B9012000E000207C
:1005F00013490860114800880A281BDB114800785D
:10060000B8B900200D49088002F013FC00210A4807
:1006100001F05AFB00BF0C48006800F4E0600B4991
:100620000843001D08490860BFF3408F00BF00BFAA
:10063000FEE7FFE710BD00000004004018000020A6
:10064000A8012242000000200CED00E00000FA05A5
:1006500010B50446012042490860052000F0C3F8A7
:1006600000BF40213F4800F0A5FE0028F9D005203A
:1006700000F095F8E1B23B4800F02EFE00BF4021AB
:10068000384800F097FE0028F9D00020344908606F
:1006900010BD10B586B004460121042000F07AFC9C
:1006A0000121480400F083FC0220ADF81400102062
:1006B0008DF8170003208DF8160005A92A4800F0D0
:1006C000ADF90420ADF8140018208DF8170005A925
:1006D000254800F0A3F90820ADF8140004208DF897
:1006E000170005A9204800F099F90121480400F0FD
:1006F00078FC00214FF4003000F073FC01940020DE
:10070000ADF80800ADF80A00ADF80C00ADF8100027
:100710000C20ADF80E0001A9124800F0E4FC012104
:10072000104800F06CFD00200D49086006B010BDB7
:1007300000BF704770B504460D4600BF4021094810
:1007400000F038FE0128F9D12046FFF781FF00BFF5
:100750004021044800F02EFE0128F9D1204670BD4A
:1007600084012142004400400008014010B56FF0B0
:10077000040000F0D4F82E4800682E49B0FBF1F0D8
:100780002D4908700846007800EB4001C1EBC0100D
:100790004FF6FF7101EAC0002849088010BD0146EC
:1007A000254A12784A434FF0E0235A6100229A61A9
:1007B0001A46126942F001021A6100BF4FF0E022AE
:1007C000106900F001021AB100F48032002AF5D05D
:1007D0004FF0E022126922F001024FF0E0231A618B
:1007E00000229A6170470146144A12884A434FF02A
:1007F000E0235A6100229A611A46126942F001020E
:100800001A6100BF4FF0E022106900F001021AB136
:1008100000F48032002AF5D04FF0E022126922F075
:1008200001024FF0E0231A6100229A617047000034
:100830000400002000127A001A0000201C00002092
:100840000948804709480047FEE7FEE7FEE7FEE764
:10085000FEE7FEE7FEE7FEE7FEE7FEE704480549A0
:10086000054A064B70470000A30300083101000849
:10087000B80D0020B8130020B80F0020B80F0020DA
:1008800031490143314A1160704770B5002100239E
:100890000F22C47804B32D4C246804F4E064C4F53A
:1008A000E064210AC1F10403CA40447804FA03F168
:1008B0008478144021430901254C0678A155047819
:1008C00004F01F050124AC4005786D11AD0005F161
:1008D000E025C5F8004109E0047804F01F05012473
:1008E000AC401C4D0678761145F8264070BD1A4A7A
:1008F0000A400243154B1B1F1A60704739B1134A57
:10090000121D12680243114B1B1D1A6006E00F4AAC
:10091000121D126882430D4B1B1D1A60704704287C
:1009200008D14FF0E021096941F004014FF0E022C5
:10093000116107E04FF0E021096921F004014FF057
:10094000E0221161704700000000FA050CED00E0A4
:1009500000E400E080E100E080FFFF1F10B50446E6
:10096000CC48844208D10121042000F02DFB002155
:10097000042000F029FB46E0C748844208D1012149
:10098000082000F021FB0021082000F01DFB3AE0C8
:10099000C248844208D10121102000F015FB00213B
:1009A000102000F011FB2EE0BD48844208D1012147
:1009B000202000F009FB0021202000F005FB22E0B0
:1009C000B848844208D10121402000F0FDFA0021FE
:1009D000402000F0F9FA16E0B348844208D1012122
:1009E000802000F0F1FA0021802000F0EDFA0AE00A
:1009F000AE48844207D10121801500F0E5FA0021BC
:100A0000A01500F0E1FA10BD10B50121084600F074
:100A1000DBFA0021012000F0D7FA10BD2DE9F041EA
:100A2000024600250026002000230024002791F81C
:100A300003C00CF00F0591F803C00CF0100CBCF1D2
:100A4000000F03D091F802C04CEA050591F800C0F0
:100A5000BCF1000F31D0146800202BE04FF0010CE6
:100A60000CFA00F3B1F800C00CEA03069E4220D154
:100A700083004FF00F0C0CFA03F7BC4305FA03FC9C
:100A80004CEA040491F803C0BCF1280F06D14FF0E2
:100A9000010C0CFA00FCC2F814C00AE091F803C083
:100AA000BCF1480F05D14FF0010C0CFA00FCC2F864
:100AB00010C0401C0828D1D31460B1F800C0BCF1AC
:100AC000FF0F34DD546800202EE000F1080C4FF0D9
:100AD000010808FA0CF3B1F800C00CEA03069E42C4
:100AE00021D183004FF00F0C0CFA03F7BC4305FA39
:100AF00003FC4CEA040491F803C0BCF1280F05D1B3
:100B000000F1080C08FA0CF8C2F8148091F803C040
:100B1000BCF1480F07D100F1080C4FF0010808FAAA
:100B20000CF8C2F81080401C0828CED35460BDE8F1
:100B3000F0814FF6FF710180022181700421C170A4
:100B400070470246002093680B400BB1012000E083
:100B5000002070470146886880B270470246002036
:100B6000D3680B400BB1012000E000207047014624
:100B7000C86880B2704701617047416170470AB12F
:100B8000016100E041617047C16070474FF48032FD
:100B90000A4382618161826182698269704702468B
:100BA0000020434B18684FF68073184040EA02104B
:100BB00008433F4B186070473E49C8617047F0B525
:100BC0000A46002300240021002500F00046B6F16B
:100BD000004F02D1364EF16901E0354E7168C0F325
:100BE000034583B200F44016B6F5401F08D121F04A
:100BF00070612F4E766826F070662D4F7E6012E091
:100C000000F48016B6F5801F06D1032606FA05F417
:100C1000A14341F0706106E0460D360103FA06F685
:100C2000B14341F0706122B1460D360103FA06F678
:100C3000314300F00046B6F1004F02D11C4EF16185
:100C400001E01B4E7160F0BD30B500228B071C0F18
:100C50000F2303FA04F2164B08338C1053F8243098
:100C60009343134C08348D1044F8253023468C10E0
:100C700053F824308C07240F00FA04F423430C4C5F
:100C800008348D1044F8253030BD0A49DC31086045
:100C90007047000000080140000C014000100140B6
:100CA0000014014000180140001C014000200140D8
:100CB0000000014000002042DF48006840F00100D1
:100CC000DD49086008464068DC490840DA49486068
:100CD00008460068DA490840D749086008460068B5
:100CE00020F4802008600846406820F4FE00486038
:100CF0004FF41F0088607047CF49096821F48031A4
:100D0000CD4A11601146096821F480211160B0F5C7
:100D1000803F03D0B0F5802F0ED106E0C6490968A8
:100D200041F48031C44A116007E0C349096841F4C5
:100D3000A021C14A116000E000BF00BF704710B59C
:100D400001460022002300204A11012A02D1BA4C98
:100D5000236806E0022A02D1B74C236A01E0B64CB0
:100D6000636A01F01F02012494401C400CB1012071
:100D700000E0002010BD38B50020009000240025C0
:100D800000BF3120FFF7DBFF05460098401C0090B4
:100D90000098B0F5A06F01D0002DF2D03120FFF700
:100DA000CEFF08B1012400E00024204638BD0146F2
:100DB0000020A14A106820F0F80040EAC10010604D
:100DC0007047A04908607047024600209A4B586857
:100DD00020F47C1042EA01031843974B5860704797
:100DE00098490866704701460020934A506820F0F1
:100DF00003000843506070478F48406800F00C00C3
:100E00007047014600208C4A506820F0F0000843EB
:100E10005060704701460020874A506820F4E06027
:100E200008435060704701460020834A506820F410
:100E3000605040EAC1005060704729B17E4A527A42
:100E400002437D4B5A7204E07B4A527A82437A4BCA
:100E50005A7270477B49D8310860704701460020BC
:100E6000754A506820F440400843506070470021A4
:100E7000714A20321170704A82F82010012802D085
:100E800004280AD104E001216B4A2032117005E0E8
:100E90000521694A2032117000E000BF00BF704791
:100EA0006949086070476449096A0143624A1162EE
:100EB0007047654944390860704730B50021002209
:100EC000002400235C4D6D6805F00C0121B104295C
:100ED00005D0082923D105E05C4D056022E05C4D7A
:100EE00005601FE0544D6D6805F47012524D6D6839
:100EF00005F48034022505EB92421CB9554D55434B
:100F000005600BE04C4D6D6805F400351DB14F4D8B
:100F10005543056002E04E4D5543056002E04B4DE0
:100F2000056000BF00BF444D6D6805F0F001090980
:100F3000494D6B5C0568DD4045603F4D6D6805F4CB
:100F4000E061090A444D6B5C4568DD4085603A4DBF
:100F50006D6805F46051C90A3F4D6B5C4568DD4022
:100F6000C560354D6D6805F44041890B3B4D6B5CA8
:100F7000C568B5FBF3F5056130BD29B12E4A52694C
:100F800002432D4B5A6104E02B4A526982432A4B9B
:100F90005A61704729B1284A92690243264B9A61E7
:100FA00004E0254A92698243234B9A61704729B134
:100FB000214AD2690243204BDA6104E01E4AD26919
:100FC00082431D4BDA61704729B11B4AD268024344
:100FD000194BDA6004E0184AD2688243164BDA6093
:100FE000704729B1144A12690243134B1A6104E095
:100FF000114A12698243104B1A61704712494039F5
:10100000086070470F49C86470470B49C871704742
:101010000948406A40F080700749486270470146BD
:101020000020054A92680A400AB1012000E0002031
:101030007047014988727047001002400000FFF8B5
:10104000FFFFF6FE000042428004424200127A0096
:101050000024F40000093D001E0000202E000020A6
:1010600010B50446FB48844209D101218803FFF7EB
:10107000ABFF00214FF48040FFF7A6FF32E0F648B7
:10108000844209D101214804FFF7ABFF00214FF44E
:101090000030FFF7A6FF25E0F048844209D1012186
:1010A0008804FFF79EFF00214FF48020FFF799FF8F
:1010B00018E0EB48844209D10121C804FFF791FFF1
:1010C00000214FF40020FFF78CFF0BE0E54884423D
:1010D00008D101210805FFF784FF00214FF480109B
:1010E000FFF77FFF10BD2DE9F04786B005460E469D
:1010F0000024A24600BFA1460027B08900B100BF6E
:101100002F462C8A4CF6FF700440F08804432C8252
:10111000AC894EF6F3100440B088318908437189D8
:1011200008430443AC81AC8A4FF6FF400440B089C9
:101130000443AC8201A8FFF7C0FEC648874202D133
:10114000DDF810A001E0DDF80CA0A88900F4004053
:1011500040B10AEBCA0000EB0A1031684900B0FB4D
:10116000F1F807E00AEBCA0000EB0A1031688900C9
:10117000B0FBF1F86420B8FBF0F004012009642111
:1011800001FB1089A88900F4004040B1322000EB37
:10119000C900B0FBF1F000F00700044308E0322082
:1011A00000EB09106421B0FBF1F000F00F000443E4
:1011B0002C8106B0BDE8F0874FF416510160002184
:1011C0008180C18001810C21418100218181704792
:1011D00010B502460020108A4FF2FF0318400B881A
:1011E0004C8823438C882343CC88234318431082A4
:1011F00010BD0021018041808180C180704721B1F4
:10120000828942F40052828104E082894DF6FF73A4
:101210001A4082817047F0B503460024002600255D
:10122000002040F66A17B94200D100BF1846C1F34A
:10123000421401F01F06012707FA06F5012C01D11F
:101240000C3004E0022C01D1103000E014301AB14F
:1012500007682F43076002E00768AF430760F0BDEF
:101260001AB1838A0B43838202E0838A8B43838291
:101270007047028A4FF6F0731A400282028A0A43CC
:101280000282704782894FF2FF731A4082818289FD
:101290000A438281704721B1828942F00202828131
:1012A00004E082894FF6FD731A4082817047028AFA
:1012B0004FF6DF731A400282028A0A4302827047A5
:1012C00021B1028A42F48042028204E0028A4BF693
:1012D000FF731A4002827047C1F308028280704790
:1012E00001468888C0F308007047818941F00101F8
:1012F00081817047028BD2B20283028B42EA0122C3
:1013000002837047028B02F47F420283028B0A43FE
:101310000283704721B1828A42F02002828204E077
:10132000828A4FF6DF731A408282704721B1828A27
:1013300042F01002828204E0828A4FF6EF731A4074
:101340008282704721B1828A42F00802828204E0E0
:10135000828A4FF6F7731A408282704721B18289E0
:1013600042F40042828103E08289C2F30E0282814C
:10137000704721B1828A42F40062828204E0828A4C
:101380004FF2FF731A4082827047828A4FF6FB73D6
:101390001A408282828A0A438282704721B1828AFD
:1013A00042F00202828204E0828A4FF6FD731A4004
:1013B0008282704702460020B1F5007F00D100BF55
:1013C00013880B400BB1012000E00020704701F4AE
:1013D0000072B2F5007F00D100BFCA43028070479F
:1013E00070B50246002400230025002040F66A164E
:1013F000B14200D100BFC1F3421501F01F03012625
:1014000006FA03F3012D02D19689334006E0022D3E
:1014100002D1168A334001E0968A33400C1201262D
:1014200006FA04F41688344013B10CB1012000E030
:10143000002070BD10B50022002340F66A14A142BE
:1014400000D100BF0A1201249440A3B2DC430480FF
:1014500010BD00000038014000440040004800403A
:10146000004C00400050004010B50446FE48844245
:1014700008D10121C014FFF7A7FD0021E014FFF7F8
:10148000A3FDC4E0B4F1804F08D101210846FFF765
:10149000A8FD00210120FFF7A4FDB8E0F348844235
:1014A00008D101210220FFF79CFD00210220FFF757
:1014B00098FDACE0EE48844208D101210420FFF7FA
:1014C00090FD00210420FFF78CFDA0E0E948844254
:1014D00008D101210820FFF784FD00210820FFF733
:1014E00080FD94E0E448844208D101211020FFF7F8
:1014F00078FD00211020FFF774FD88E0DF4884426A
:1015000008D101212020FFF76CFD00212020FFF7EA
:1015100068FD7CE0DA48844208D101214014FFF7DD
:1015200053FD00216014FFF74FFD70E0D548844261
:1015300009D10121C804FFF747FD00214FF4002025
:10154000FFF742FD63E0D048844209D1012108053C
:10155000FFF73AFD00214FF48010FFF735FD56E00C
:10156000CA48844209D101214805FFF72DFD002119
:101570004FF40010FFF728FD49E0C548844208D128
:1015800001214020FFF72DFD00214020FFF729FD1C
:101590003DE0C048844208D101218020FFF721FDB1
:1015A00000218020FFF71DFD31E0BB48844208D1B7
:1015B00001218015FFF715FD0021A015FFF711FD92
:1015C00025E0B648844209D101210804FFF7FCFC5C
:1015D00000214FF48030FFF7F7FC18E0B048844258
:1015E00009D101214804FFF7EFFC00214FF400303E
:1015F000FFF7EAFC0BE0AB48844208D101218804E4
:10160000FFF7E2FC00214FF48020FFF7DDFC10BD66
:1016100000220288944B98420ED0994B98420BD0EE
:10162000B0F1804F08D0914B984205D0904B984232
:1016300002D0904B984204D14FF68F731A404B88DA
:101640001A438D4B984207D08C4B984204D04FF6EA
:10165000FF431A40CB881A4302808B8883850B880E
:101660000385814B98420BD0854B984208D08B4B19
:10167000984205D08A4B984202D08A4B984201D1B9
:101680000B7A038601238382704770B50024002201
:101690000023058C4FF6FE7635400584028C838846
:1016A000048B4FF68F752C40B51E2C400D882C43B3
:1016B000751E2A400D892A434D882A436A4DA84247
:1016C0000BD06F4DA84208D0744DA84205D0744D80
:1016D000A84202D0734DA84213D14FF6F7752A40A5
:1016E0004D892A434FF6FB752A408D882A434FF6D1
:1016F000FF652B404FF6FF552B408D892B43CD893D
:101700002B4383800483CD888586028470BD70B5A9
:10171000002400220023058C4FF6EF763540058427
:10172000028C8388048B48F6FF752C404FF6FF45EA
:101730002C400D884FF6FF7606EA05252C434FF620
:10174000DF752A400D8906EA05152A434D8806EA09
:1017500005152A43444DA84202D0494DA8421DD147
:101760004FF67F752A404D894FF6FF7606EA05153C
:101770002A434FF6BF752A408D8806EA05152A438D
:101780004FF6FF352B404FF2FF752B408D8906EA4F
:1017900085052B43CD8906EA85052B438380048389
:1017A000CD880587028470BD70B500240022002317
:1017B000058C4FF6FF6635400584028C8388848B48
:1017C0004FF68F752C404FF6FC752C400D882C433E
:1017D0004FF6FF552A400D894FF6FF7606EA05259C
:1017E0002A434D8806EA05252A431F4DA84202D008
:1017F000234DA8421DD14FF2FF752A404D894FF667
:10180000FF7606EA05252A434FF6FF352A408D88E4
:1018100006EA05252A434EF6FF752B404DF6FF7567
:101820002B408D8906EA05152B43CD8906EA05155F
:101830002B4383808483CD888587028470BD70B5F7
:10184000002200230024058C4EF6FF7635400584E7
:10185000038C8488828B48F6FF752A404FF6FF453B
:101860002A400D8820E00000002C014000040040C8
:1018700000080040000C0040001000400014004030
:1018800000340140004C0140005001400054014030
:1018900000180040001C00400020004000400140B3
:1018A00000440140004801404FF6FF7606EA052556
:1018B0002A434DF6FF752B400D8906EA05352B436B
:1018C0004D8806EA05352B43FA4DA84202D0FA4D61
:1018D000A84208D14BF6FF752C408D894FF6FF7654
:1018E00006EA85152C4384808283CD88A0F8405079
:1018F000038470BD828B4FF2FF331A408283828B48
:101900004FF6FF7303EA01231A4382837047F0B551
:101910000C461546002200210026078C4EF6FF7C5F
:1019200007EA0C070784828B018C4FF6FF7707EAE2
:10193000043640F6FF473A404FF6FF7707EA05279F
:101940003A434FF6FF7707EA03373A43D94FB84295
:101950000ED0D94FB8420BD0B0F1804F08D0D74F3E
:10196000B84205D0D64FB84202D0D64FB84206D1C1
:101970004DF6FF77394046F48057394305E047F686
:10198000FF57394044F48057394382830184F0BDC6
:10199000828B4FF6F3731A408283828B0A438283D1
:1019A0007047F0B50C461546002200210026078C32
:1019B0004FF6FF6C07EA0C070784828B018C4FF609
:1019C000FF7707EA04264FF60C773A404FF6FF7789
:1019D00007EA03172F433A43B64FB8420ED0B64F2B
:1019E000B8420BD0B0F1804F08D0B44FB84205D008
:1019F000B34FB84202D0B34FB84206D14FF6FF57AB
:101A0000394046F48077394305E04FF2FF573940BB
:101A100044F48077394382830184F0BD028B4FF216
:101A2000FF331A400283028B4FF6FF7303EA012350
:101A30001A4302837047F0B50C4615460022002178
:101A40000026078C4FF6EF7C07EA0C070784028B11
:101A5000018C4FF6FF7707EA041640F6FF473A403D
:101A60004FF6FF7707EA03373A434FF6FF7707EA67
:101A700005273A438F4FB8420ED08F4FB8420BD054
:101A8000B0F1804F08D08D4FB84205D08C4FB8428E
:101A900002D08C4FB84206D14FF6DF77394046F07E
:101AA0001007394305E04FF65F77394044F01007DF
:101AB000394302830184F0BD028B4FF6F3731A4061
:101AC0000283028B0A4302837047F0B50C46154629
:101AD00000220021068C4FF6FE773E400684028BE2
:101AE000018C4FF60C7632407E1C06EA03162E431C
:101AF0003243704EB0420ED06F4EB0420BD0B0F1B8
:101B0000804F08D06D4EB04205D06D4EB04202D02D
:101B10006C4EB04206D14FF6FD76314044F00106DE
:101B2000314305E04FF6F576314044F0010631438C
:101B300002830184F0BD70B505460C465D488542C0
:101B40000ED05D4885420BD0B5F1804F08D05B4880
:101B5000854205D05A48854202D05A48854200D174
:101B600000E000BF208850B92389A28861882846F8
:101B7000FFF7ABFFE1882846FFF79EFF25E02088AE
:101B800004280AD12389A28861882846FFF753FFD9
:101B9000E1882846FFF742FF17E0208808280AD18D
:101BA0002389A28861882846FFF7FBFEE188284642
:101BB000FFF7EEFE09E02389A28861882846FFF737
:101BC000A6FEE1882846FFF795FE70BD2DE9F0419D
:101BD00005460C4600260127608808B9022600E069
:101BE0000026A088012801D1022700E001272088D3
:101BF000A0B92389A28861882846FFF766FFE1889B
:101C00002846FFF759FF23893A4631462846FFF711
:101C100012FFE1882846FFF701FF13E02389A2881D
:101C200061882846FFF707FFE1882846FFF7F6FEA0
:101C300023893A4631462846FFF747FFE188284680
:101C4000FFF73AFFBDE8F0810A884B881A438B887A
:101C50001A43CB881A430B891A434B891A438B8941
:101C60001A43A0F8442070474FF6FF71818000218D
:101C70000180C18041800172704700210180418054
:101C80008180C180018141818181C18170470021B2
:101C900001804180012181800021C1800181704744
:101CA0000021018041808180C18001814181818149
:101CB00070470000002C0140003401400004004047
:101CC00000080040000C004021B1028842F00102EF
:101CD000028004E002884FF6FE731A4002807047CB
:101CE00031B1B0F8442042F40042A0F8442005E0AD
:101CF000B0F84420C2F30E02A0F8442070471AB195
:101D000083890B43838102E083898B4383817047FE
:101D10008182704741EA0203A0F8483070471AB147
:101D200083890B43838102E083898B4383817047DE
:101D300001894FF6F8721140018170470A4600216F
:101D400001894FF68F73194011430181704730B5F7
:101D500004460D4629462046FFF7F0FF208940F053
:101D60000700208130BD2DE9F04104460D4616469E
:101D70001F46602D06D13B46012231462046FFF723
:101D80005AFE05E03B46012231462046FFF79DFE04
:101D900029462046FFF7D2FF208940F00700208126
:101DA000BDE8F08130B50C4600210189C9B24FF67B
:101DB000FF7505EA0325154325432943018130BDFD
:101DC0002DE9F04105460E46174698460024434645
:101DD0003A4631462846FFF7E5FF2C894FF6F87062
:101DE000044044F007044FF68F70044044F0700440
:101DF0002C81BDE8F081F0B504460D4616461F461D
:101E00003B46324629462046FFF7CCFF208940F466
:101E100080402081F0BD0185828270470A46002102
:101E200001884FF68F731940114301807047F0B558
:101E30000C4615461E460021002200230189028B14
:101E4000038C4FF6F877394021434FF6FC473A4070
:101E500040F201173A434FF6DD773B404FF6FF77EC
:101E600007EA06172F433B43018102830384F0BD39
:101E70000A460021018B4FF68F73194011430183ED
:101E800070470A460021018B48F6FF7319404FF650
:101E9000FF7303EA02231943018370470A460021B6
:101EA000818B4FF68F7319401143818370470A4627
:101EB0000021818B48F6FF7319404FF6FF7303EA48
:101EC000022319438183704721B1028842F08002C6
:101ED000028004E002884FF67F731A400280704748
:101EE00021B1828842F00402828004E082884FF6A9
:101EF000FB731A408280704721B1828842F0080249
:101F0000828004E082884FF6F7731A40828070471F
:101F100021B1828842F00102828004E082884FF67B
:101F2000FE731A40828070470A460021018B4FF6EB
:101F3000F77319401143018370470A460021018B52
:101F40004FF2FF7319404FF6FF7303EA0223194360
:101F5000018370470A460021818B4FF6F7731940C1
:101F60001143818370470A460021818B4FF2FF7332
:101F700019404FF6FF7303EA022319438183704728
:101F80000A460021018B4FF6FB7319401143018370
:101F900070470A460021018B4FF6FF3319404FF678
:101FA000FF7303EA02231943018370470A460021A5
:101FB000818B4FF6FB7319401143818370470A46AA
:101FC0000021818B4FF6FF3319404FF6FF7303EA70
:101FD00002231943818370470A460021018B4FF683
:101FE0007F7319401143018370470A460021018B1A
:101FF000C1F30E014FF6FF7303EA02231943018375
:1020000070470A460021818B4FF67F7319401143B8
:10201000818370470A460021818BC1F30E014FF680
:10202000FF7303EA02231943818370470A460021A4
:10203000018C4FF6FD7319401143018470470A4625
:102040000021018C4FF6F77319401143018470474A
:102050000A460021018C4FF6DF7319404FF6FF73DB
:1020600003EA02131943018470470A460021018CD8
:102070004FF67F7319404FF6FF7303EA02131943BB
:10208000018470470A460021018C4FF6FF53194026
:102090004FF6FF7303EA02231943018470470A468F
:1020A0000021018C4FF2FF7319404FF6FF7303EAD2
:1020B00002231943018470470A460021018C4DF622
:1020C000FF7319404FF6FF7303EA0233194301848B
:1020D000704730B5002301248C40A3B2048C9C438C
:1020E0000484048C02FA01F5ADB22C43048430BDA3
:1020F00030B5002304248C40A3B2048C9C43048498
:10210000048C02FA01F5ADB22C43048430BD70B5E5
:102110000346002000241846183001258D40ACB23B
:102120001D8CA5431D8409B1082909D100EB61006C
:10213000056825F0700505600568154305600EE02B
:102140000D1FC5F34E052844056825F4E0450560DC
:1021500005684FF6FF7606EA02263543056070BD36
:1021600021B1028842F00202028004E002884FF6A8
:10217000FD731A400280704721B1028842F00402C8
:10218000028004E002884FF6FB731A400280704719
:1021900021B1828842F08002828004E082884FF67A
:1021A0007F731A408280704702884FF6F7731A4097
:1021B000028002880A430280704782884FF68F733C
:1021C0001A40828082880A438280704702894FF6D3
:1021D000F8731A40028102890A430281704702891A
:1021E0004FF67F731A40028102890A4302817047C9
:1021F0008184704781857047818670470187704769
:1022000081877047A0F84010704702884FF6FF435F
:102210001A40028002880A43028070470146888E75
:1022200070470146088F70470146888F7047014606
:10223000B1F8400070470146888C70470146088D10
:10224000704702460020138A0B400BB1012000E0CA
:1022500000207047CA430282704730B50246002012
:1022600000230024158A05EA0103958905EA010483
:1022700013B10CB1012000E0002030BDCA4302823E
:102280007047000001460020FE4A106800F0380048
:10229000084310607047FB49096821F00801F94ABA
:1022A000116011460968014311607047F5490968DA
:1022B00021F01001F34A11601146096801431160D1
:1022C0007047F148EF494860F04848607047EE4871
:1022D000EC494860ED4848607047EA48006940F0C2
:1022E0008000E84908617047E648006940F08000D6
:1022F000E449086170470420E249C96801F001011E
:1023000009B101200EE0DF49C96801F0040109B1FB
:10231000022007E0DB49C96801F0100109B1032080
:1023200000E00420704700B502460423FFF7E3FFF6
:10233000034603E0FFF7DFFF0346521E012B01D1E6
:10234000002AF7D102B90523184600BD30B504466E
:1023500004254FF43020FFF7E6FF0546042D17D182
:10236000C848006940F00200C64908610846446157
:10237000006940F0400008614FF43020FFF7D3FFC0
:102380000546C048006941F6FD710840BD49086135
:10239000284630BD10B504244FF43020FFF7C3FFAA
:1023A0000446042C16D1B748006940F00400B54932
:1023B00008610846006940F0400008614FF4302091
:1023C000FFF7B1FF0446AF48006941F6FB710840D2
:1023D000AC490861204610BD00B502460423FFF752
:1023E0008AFF034603E0FFF786FF0346521E012BD8
:1023F00001D1002AF7D102B90523184600BD10B556
:1024000004244FF43020FFF7E7FF0446042C16D1D4
:102410009C48006940F004009A4908610846006938
:1024200040F0400008614FF43020FFF7D5FF04462C
:102430009448006941F6FB710840924908612046C2
:1024400010BD00208F49C96901F0020109B10120C6
:1024500000E00020704730B5A5250424FFF7F1FF08
:1024600000B100254FF43020FFF75DFF0446042C37
:102470003AD1854883498860844888600846006965
:1024800040F0200008610846006940F04000086103
:102490004FF43020FFF747FF0446042C1BD1794846
:1024A000006941F6DF710840764908610846006915
:1024B00040F01000086176480580E002FFF733FF26
:1024C0000446052C10D06F48006941F6EF710840B2
:1024D0006C49086108E0052C06D06A48006941F69D
:1024E000EF71084067490861204630BD78B506465F
:1024F0000C46042500200090E802FFF714FF054673
:10250000042D24D15F48006940F001005D49086155
:102510003480E802FFF707FF0546042D10D1B01CF8
:102520000090200C00990880E802FFF7FCFE0546A9
:102530005448006941F6FE7108405249086106E0BE
:102540005048006941F6FE7108404E49086128462E
:1025500078BD70B504460D460426F002FFF7E3FE91
:102560000646042E11D14748006940F00100454954
:1025700008612580F002FFF7D6FE06464148006953
:1025800041F6FE7108403F490861304670BD70B5A4
:1025900005460E460424E002FFF7C5FE0446042C5F
:1025A00017D139483749886038488860084600693B
:1025B00040F0100008612E80E002FFF7B4FE0446F0
:1025C000052C06D02F48006941F6EF7108402D49CF
:1025D0000861204670BD2DE9F04304464FF6FF76B2
:1025E0003746B046B1460425E443E6B2C4F30727B4
:1025F000C4F307484FEA1469E802FFF794FE054662
:10260000042D49D120481F49886020488860084629
:10261000006940F010000861FF2E06D01C48083009
:102620000680E802FFF77FFE0546042D08D1FF2F44
:1026300006D017480A300780E802FFF774FE054607
:10264000042D0AD1B8F1FF0F07D011480C30A0F8C3
:102650000080E802FFF767FE0546042D0AD1B9F1B4
:10266000FF0F07D00A480E30A0F80090E802FFF7ED
:102670005AFE0546052D0FD00248006941F6EF715C
:10268000084007E00020024023016745AB89EFCDF9
:1026900000F8FF1F664908612846BDE8F08330B5A1
:1026A000054604244FF43020FFF73DFE0446042C79
:1026B00041D160485E4988605F488860084600698B
:1026C00040F0200008610846006940F040000861C1
:1026D0004FF43020FFF727FE0446042C22D1544843
:1026E000006941F6DF7108405149086108460069F8
:1026F00040F0100008611DB100205049088002E040
:10270000A5204E4908804FF43020FFF70CFE044608
:10271000052C10D04648006941F6EF710840444945
:10272000086108E0052C06D04148006941F6DF71D8
:1027300008403F490861204630BDF0B505460E46C9
:10274000174604243B483A4988603B488860E002C9
:10275000FFF7E9FD0446042C19D13548006940F023
:1027600010003349086147F0F800304328433349EB
:10277000891C0880E002FFF7D6FD0446052C06D030
:102780002B48006941F6EF7108402949086120464D
:10279000F0BD2748C069800870472548006A704727
:1027A00000202349096801F0200109B1012000E05F
:1027B0000020704729B11E4A126902431C4B1A615E
:1027C00004E01B4A12698243194B1A6170470146A3
:1027D0000020012908D1164AD26902F001020AB18B
:1027E000012008E0002006E0114AD2680A400AB140
:1027F000012000E0002070470D49C86070470420A8
:102800000B49C96801F0010109B101200EE0084936
:10281000C96801F0040109B1022007E00449C96850
:1028200001F0100109B1032000E00420704700000E
:102830000020024023016745AB89EFCD00F8FF1F60
:1028400038B5044601210520FEF7A4FB01218803C9
:10285000FEF7A0FB18208DF803004FF40070ADF8D0
:10286000000003208DF802006946F948FEF7D6F80B
:1028700004208DF803000002ADF800006946F4481A
:10288000FEF7CCF82146F348FEF72DFC0121F14874
:10289000FEF7B5FC38BDF0B5EF4A00250024002353
:1028A00020E0B1FBF2F6303606F0FF0C2E466D1C30
:1028B00000F806C0B1FBF2F602FB16110A26B2FBC5
:1028C000F6F26E1E865D302E01D1012600E0002654
:1028D0000CB9012700E000273E400EB1002500E0C2
:1028E000641C5B1C0A2BDCD3F0BD70B502460C46A1
:1028F0000021002500231078302843D15078782813
:1029000002D0507858283DD1907808B9002070BD89
:10291000022130E0505C10B9236001252DE0505CAD
:10292000412802DB505C46280BDD505C612802DB4D
:10293000505C662805DD505C302819DB505C392876
:1029400016DC505C302805DB505C392802DC505C1A
:1029500030380AE0505C412805DB505C462802DC38
:10296000505C373801E0505C573800EB031301E04E
:10297000002502E0491C0B29CCD300BF0B2934D31E
:10298000002532E000212AE0505C10B923600125C7
:1029900027E0505C6B2802D0505C4B2804D119B161
:1029A0009B02236001251CE0505C6D2802D0505C26
:1029B0004D2804D119B11B052360012511E0505C9D
:1029C000302809DB505C392806DC505C303803EBDA
:1029D000830600EB460301E0002502E0491C0B29B9
:1029E000D2D300BF0B2900D3002528468FE710B5AE
:1029F00004460120994908600520FDF7F4FE00BF58
:102A000040219748FEF7D6FC0028F9D00520FDF7B5
:102A1000C6FE21469248FEF75FFC00BF4021904869
:102A2000FEF7C8FC0028F9D000208C49086010BDD2
:102A300010B5044603E02078FFF7D9FF641C207826
:102A40000028F8D110BD10B5044620218448FEF7B7
:102A5000B1FC28B18248001D00882070012010BD03
:102A60000020FCE708B50020009004E06846FFF76E
:102A7000EAFF00B100E0F9E700BF9DF8000008BDE3
:102A800070B506460024002500BFFFF7EBFF0546A2
:102A90000A2D04D1601E305C0D2800D116E0082DEF
:102AA00002D104B1641E10E0802C04D36DA0FFF7A6
:102AB000BFFF002409E0202D01DB7E2D01DD0D2D5F
:102AC00002D12046641C355400BFDEE700BF6AA077
:102AD000FFF7AEFF0021601E315470BD1FB50446E4
:102AE00023E06846FFF7CCFF9DF8000000B91CE02A
:102AF0009DF80000612803D09DF80000412808D10E
:102B00009DF8010028B95DA0FFF792FF002004B0F6
:102B100010BD21466846FFF7E8FE18B95CA0FFF734
:102B200087FF01E00120F2E700BFDAE701B50020EE
:102B30000099C1F30A021AB1012202EBD12000E090
:102B4000C80A08BDF3B581B00E4600240025002058
:102B5000009004270198FFF7E9FF0546FFF7B1FB56
:102B600000BF1EE04F494FF4006202FB0410FFF764
:102B7000EDFB0746012E13D14BA0FFF759FF601C58
:102B800041006846FFF787FE6846FFF751FF48A0FF
:102B9000FFF74EFF681EA04202D147A0FFF748FF93
:102BA000641CAC4201D2042FDCD0FFF796FBAC4290
:102BB00001D1042F01D00020FEBD0120FCE7F8B5B3
:102BC000002400250020009004264FF4C030FFF7B9
:102BD000ADFF0546FFF775FB00BF1CE03D494FF414
:102BE000006202FB0410FFF7B1FB06462EA0FFF7C0
:102BF0001FFF601C41006846FFF74DFE6846FFF767
:102C000017FF2BA0FFF714FF681EA04202D132A0CD
:102C1000FFF70EFF641CAC4201D2042EDED0FFF79A
:102C20005CFBAC4201D1042E01D00020F8BD012094
:102C3000FCE7F8B5002400250020009004264FF49E
:102C4000C030FFF773FF0546FFF73BFB00BF72E0A4
:102C5000000801400038014000CA9A3B840121422B
:102C60000044004020436D642073697A65206F76CC
:102C700065722E0D0A0000000D0A000020557365D4
:102C8000722043616E63656C6C65642E0D0A0000F2
:102C9000204572726F722C20496E7075742E0D0A69
:102CA00000000000000001082040657261736500AB
:102CB0004B400D0A00000000204045726173652002
:102CC000636F6D706C6574652053756363657373B2
:102CD00000000000008002082040457261736520FA
:102CE00042756620636F6D706C6574652053756303
:102CF000636573730000000016494FF4006202FB25
:102D00000410FFF723FB0646AFF26400FFF790FEC6
:102D1000601C41006846FFF7BEFD6846FFF788FE6D
:102D2000AFF27400FFF784FE681EA04202D10AA031
:102D3000FFF77EFE641CAC4201D2042EDCD0FFF70C
:102D4000CCFAAC4201D1042E01D00020F8BD012004
:102D5000FCE7000000000108204045726173652017
:102D600041505020636F6D706C65746520537563BE
:102D700063657373000000002DE9F047002400250F
:102D8000012602274FF004084FF00109FFF705FD67
:102D90000546FE4800682840FC490968884243D03F
:102DA000FFF7F7FC0446F94800682843F749086034
:102DB000FFF751FB8146F5480068401C28B1F348F5
:102DC0000068C043FFF707FC814604F007000728AE
:102DD00011D004F0010000B9002604F0020000B98F
:102DE000002704F0040008B94FF0000842463946B5
:102DF0003046FFF7A2FCB9F1040F11D1E4A0FFF7B0
:102E000017FE00BFE948006800F4E060E8490843A5
:102E1000001DE6490860BFF3408F00BF00BFFEE71A
:102E2000E4A0FFF705FE02E0EAA0FFF701FEBDE81F
:102E3000F08701B5FFF745FA01226946ED4800F039
:102E4000FAFBFFF74AFA08BD10B5EA4800F0CCFBE0
:102E500010BD1FB54FF4165000900020ADF80400CF
:102E6000ADF80600ADF80800ADF80C000C20ADF888
:102E70000A006846FFF7E4FC1FBD10B5DE48006895
:102E8000DE490840B0F1005F17D10021DC48FEF7B1
:102E90001BFFDCA0FFF7CCFDD7484068DE49086087
:102EA00008460068DD490860D3490868FDF797F9CE
:102EB000DA4800688047002010BDD9A0FFF7B8FDB0
:102EC0000120F9E700B5A1B0802101A801F03AF88E
:102ED000D9480068A0F10060000BD8490860084696
:102EE00000683E2808D20846017801208840401E2C
:102EF000C043A649086003E04FF00040A3490860C2
:102F0000FFF74BFCA14909680840A04909688842BD
:102F100003D00120CA49086002E00020C8490860C7
:102F200067E0C8A0FFF784FDCEA0FFF781FDD0A029
:102F3000FFF77EFDD1A0FFF77BFDD3A0FFF778FD63
:102F4000D3A0FFF775FDBE48006810B1D3A0FFF70E
:102F50006FFD01A8FFF794FDD3A101A801F01AF8B5
:102F600040B94EF6EE60FFF764FF0120D0490870CB
:102F700021B000BDCFA101A801F00CF820B94DF699
:102F8000DD50FFF756FFF3E7CCA101A801F002F8EE
:102F900020B94CF6CC40FFF74CFFE9E7C9A101A8E6
:102FA00000F0F8FF38B94FF6FF70FFF742FF01203D
:102FB000BF4908701DE0C5A101A800F0EBFF18B9DA
:102FC0000020FFF736FFD3E7C2A101A800F0E2FF1F
:102FD00020B94CF2C000FFF72CFFC9E7BFA101A840
:102FE00000F0D8FF10B9FFF7C7FE02E0BDA0FFF761
:102FF0001FFD96E73EB5002000900190029000244E
:10300000BD4800F063FC0446002C17DDBBA0FFF7B1
:103010000FFDBFA0FFF70CFDBF48FFF709FD2146DC
:103020006846FFF738FCBDA0FFF702FD6846FFF7D2
:10303000FFFCBDA0FFF7FCFC00203EBD601C28B9D2
:10304000BCA0FFF7F5FC4FF0FF30F6E7A01C28B955
:10305000BDA0FFF7EDFC6FF00100EEE7E01C28B922
:10306000BEA0FFF7E5FC6FF00200E6E7601D28B99F
:10307000C0A0FFF7DDFC6FF00400DEE7C1A0FFF7A2
:10308000D7FC6FF00300D8E710B50024C2A0FFF70B
:10309000CFFCFFF7E7FC432813D14FF44032CCA11B
:1030A000554800F0C9FD04462CB1CFA0FFF7C0FC85
:1030B0004FF0FF3010BDD7A0FFF7BAFC6FF0010052
:1030C000F8E7DDA0FFF7B4FC0020F3E708B5002027
:1030D000009060216846FFF7DEFBDDA0FFF7A8FC4B
:1030E0006846FFF7A5FCDDA0FFF7A2FC01214FF425
:1030F000C030FFF727FD08B1002008BD4FF0FF30BA
:10310000FBE770B5ADF5826D3B48CDF80C04D448B3
:10311000CDF8080400250020CDF8040400244FF465
:10312000806101A800F00EFF04264FF4C030FFF7C5
:10313000FDFC0546FFF743FD002825D0C9A0FFF799
:1031400077FC00BFA6E14FF4007201A9DDF80C0482
:1031500000F060FA4FF4007201A9DDF8080400F0F5
:103160006AFADDF80C0400F58060CDF80C04DDF897
:10317000080400F58060CDF80804BFA0FFF758FCF4
:10318000611C0DF204407BE18EE100004000002054
:1031900057726974652050726F74656374696F6EDD
:1031A00020436C6F73652E0D0A0000000CED00E0EB
:1031B0000000FA054572726F723A20756E70726F78
:1031C00074656374696F6E206661696C65642E0D49
:1031D0000A000000466C617368206E6F742077727D
:1031E0006974652070726F7465637465642E0D0A6E
:1031F0000000000000F80008000001080000FE2F99
:10320000000400400D0A2052756E20746F2061701A
:10321000702E0D0A0000000038000020340000204D
:103220000D0A2052756E20746F20617070206572D7
:10323000726F722E0D0A0000480000203C00002032
:10324000440000200D0A20494150204D61696E2044
:103250004D656E7520285620302E312E34290D0AEA
:1032600000000000207570646174650D0A000000A4
:103270002075706C6F61640D0A000000206572613A
:1032800073650D0A00000000206D656E750D0A0063
:103290002072756E6170700D0A0000002064697301
:1032A00077700D0A0000000075706461746500009D
:1032B0000000002075706C6F6164000065726173BE
:1032C000650000006D656E750000000072756E612E
:1032D00070700000636F707961707000646973775B
:1032E0007000000020496E76616C696420434D4493
:1032F00020210D0A00000000540000200D0A205576
:103300007064617465204F766572210D0A000000BB
:10331000204E616D653A2000540C00200D0A2053A8
:10332000697A653A200000002042797465732E0D99
:103330000A0000000D0A20496D61676520546F6F17
:1033400020426967210D0A000D0A205570646174DE
:1033500065206661696C6564210D0A000D0A2041D3
:10336000626F7274656420627920757365722E0DC8
:103370000A0000000D0A20435243204552524F528A
:103380002E0D0A0020526563656976652046696CDA
:1033900065642E0D0A0000000A0A0D53656C656312
:1033A0007420526563656976652046696C65202ED8
:1033B0002E2E2028707265737320616E79206B65E4
:1033C0007920746F2061626F7274290A0D00000009
:1033D00055706C6F61646564466C617368496D61BA
:1033E00067652E62696E00000A0D4572726F722069
:1033F0004F636375726564207768696C65205472E9
:10340000616E736D697474696E672046696C650AD4
:103410000D0000000A0D46696C6520547261736DE1
:103420006974746564205375636365737366756C42
:103430006C79200A0D0000000D0A0A41626F727457
:10344000656420627920757365722E0A0D00000094
:103450002040746F74616C20000000004B4000003D
:10346000008002082020436F707979696E672E2EE4
:103470002E2E0D0A000000002040636F70790000BE
:10348000FFF709FA0DF20440FFF7D2FA37A0FFF771
:10349000CFFA641C602CFFF456AE37A0FFF7C8FAD1
:1034A00000200DF5826D70BD38A0FFF7C1FA4FF016
:1034B000FF30F6E770B5ADF5826D3A48CDF80C04F3
:1034C0003948CDF8080400250020CDF80404002474
:1034D0004FF4806101A800F035FD04264FF4C030A0
:1034E000FFF724FB0546FFF7A4FB002837D02FA0E9
:1034F000FFF79EFA00BF29E04FF4007201A9DDF842
:10350000080400F087F84FF4007201A9DDF80C04FC
:1035100000F091F8DDF80C0400F58060CDF80C04A3
:10352000DDF8080400F58060CDF8080425A0FFF759
:103530007FFA611C0DF20440FFF7ADF90DF2044073
:10354000FFF776FA09A0FFF773FA641C602CD3D357
:103550001FA0FFF76DFA00200DF5826D70BD0BA066
:10356000FFF766FA4FF0FF30F6E70000204B427994
:103570007465400D0A00000020436F707920537578
:1035800063636573732E2E2E2E0D0A002065726103
:1035900073652061707032206661756C742E0D0A3F
:1035A0000000000000000108008002082020526591
:1035B000636F7665727979696E672E2E2E2E0D0AED
:1035C0000000000020405265636F7665727900004C
:1035D000205265636F7665727920537563636573F6
:1035E000732E2E2E2E0D0A000146088870472DE9F5
:1035F000F04105460E461746002407E036F8141041
:103600002846FEF7A6FFAD1C601C84B2BC42F5DB69
:10361000BDE8F08130B503460C461546002207E0B0
:103620001846FFF7E1FF24F812009B1C501C82B2E1
:10363000AA42F5DB30BD2DE9F05F80468A46174689
:10364000B8F1006F02D3B8F1C05F01D3BDE8F09FBD
:10365000FEF737FEA8F1006B4FEADB25CBF34909F3
:10366000C9F58064A74200DC3C464DE04FF00061A4
:1036700001EBC5204A142749FFF7CCFF00260BE0D9
:1036800009EB0600234931F810004FF6FF7188421C
:1036900000D003E0701C86B2A642F1DB00BFA64258
:1036A0001BDA4FF0006101EBC520FEF74FFE00264C
:1036B00008E03AF8160006EB0901164A22F8110054
:1036C000701C86B2A642F4DB4FF0006101EBC5200E
:1036D0004A141049FFF78BFF04E02246514640464A
:1036E000FFF785FFA74200D10FE06D1C4FF00009E6
:1036F0000AEB440AA044381B87B2B7F5806F02DD9D
:103700004FF4806400E03C46B0E700BFFEF7E5FD03
:1037100000BF9BE75404002070B505460C4606E048
:103720002846FFF790F9012801D1002070BD200044
:10373000A4F10104F4D1401EF8E710B50446204678
:10374000FFF755F9002010BD10B503460C46194689
:1037500044F4807200BF4900520002F4807000B14E
:10376000491C01F4803010B141F22100414002F4C3
:1037700080300028EFD088B210BDF0B505460E4667
:103780000024AF1905E015F8011BA0B2FFF7DCFF1C
:103790000446BD42F7D3A0B20021FFF7D5FF04468F
:1037A00020460021FFF7D0FF04462046F0BD2DE95A
:1037B000F84305460E46914600203060494668466B
:1037C000FFF7AAFF18B14FF0FF30BDE8F8839DF86E
:1037D0000000A2281CD010DC182831D006DC0128FB
:1037E0001DD0022824D004283ED127E0412838D01B
:1037F000612837D0A12837D108E0A338072833D271
:10380000DFE800F0080A0C0F1215190008242EE05A
:1038100010242CE020242AE0402428E000BF80244B
:1038200025E04FF4807422E04FF400741FE000BFE5
:103830004FF480641BE04FF4006418E00020C4E7FC
:1038400049466846FFF768FF40B99DF80000182810
:1038500004D14FF0FF3030600020B6E74FF0FF306A
:10386000B3E700BF0120B0E74FF0FF30ADE700BF86
:103870009DF800002870012709E0E8194946FFF784
:103880004BFF10B14FF0FF309FE7781C87B2601DEF
:103890008742F2DB6978A87880F0FF00814202D08D
:1038A0004FF0FF3091E72146E81CFFF766FF8046A6
:1038B000201D295CE01C285C41EA0020404502D024
:1038C0006FF0040081E7346000207EE72DE9F04FBF
:1038D000ADF22C4D06464FF0000B00200090F94849
:1038E000F94908604320FFF728FF00200390824633
:1038F000019000BF002700200290B04600BF4FF4A7
:10390000801204A909A8FFF752FF10B1012871D154
:10391000BDE04FF0000A0498B0F1FF3F01D070B94C
:1039200007E00620FFF709FF00200DF22C4DBDE84F
:10393000F08F0620FFF701FF01200290A5E09DF81F
:103940002500F9B2884203D01520FFF7F6FE9CE06F
:10395000002F57D19DF8270000284CD000250DF1ED
:10396000270405E014F8012B28466D1CD7490A549A
:10397000207808B1FF2DF5DD002228466D1CD349C3
:103980000A540025641C05E014F8012B28466D1C20
:1039900005A90A542078202801D0102DF4DB00223C
:1039A00028466D1C05A90A54694605A8FEF79DFF27
:1039B0000098B0F5C03F08DB1820FFF7BEFE1820C6
:1039C000FFF7BBFE4FF0FF30AFE700210098FFF795
:1039D000B9F840B91820FFF7B0FE1820FFF7ADFE88
:1039E0004FF0FF30A1E70620FFF7A7FE4320FFF7C7
:1039F000A4FE47E054E00620FFF79FFE012002905E
:103A0000039042E00DF127014046049A00F055FA78
:103A1000AF4806604FF0000927E0FEF752FCAC48C3
:103A200000680168A8480068FEF760FDFEF755FCD5
:103A3000A54800680068A64909680968884208D056
:103A40001820FFF77AFE1820FFF777FE6FF00100CD
:103A50006BE79D480068001D9B4908609C48006812
:103A6000001D9B49086009F104090498814506DAA4
:103A7000944900980844944909688842CDD80620A2
:103A8000FFF75BFE7F1C0120019000BF2AE0182099
:103A9000FFF753FE1820FFF750FE6FF0020044E7D7
:103AA0000198002802DD0AF1010A01E00BF1010B87
:103AB000BAF1050F07DD1820FFF73FFE1820FFF7CA
:103AC0003CFE002031E7BBF10A0F07DD1820FFF7AD
:103AD00034FE1820FFF731FE002026E74320FFF7D1
:103AE0002CFE00BF00BF029800283FF408AF00BFC3
:103AF00000BF039800283FF4FDAE00BF00BF009850
:103B000013E70146002070472DE9FE4305460F46A6
:103B100090460120287000206870FF20A8700024C3
:103B200004E0395DE01C2954601C84B2385D08B1A2
:103B3000FF2CF6DD0021E01C29546846D8F800105F
:103B4000FEF7A9FE0026201D84B208E03046711C55
:103B50008EB21DF800202046611C8CB22A541DF83C
:103B600006000028F2D1264603E00020A855701C6C
:103B700086B2832EF9DBBDE8FE83F0B50746144616
:103B80001D46B5F5806F02D34FF4806C01E04FF015
:103B9000800C63469D4201D2AC4600E09C461FFA71
:103BA0008CF2B3F5806F04D14FF0020C81F800C0A5
:103BB00003E04FF0010C81F800C04C706FEA040C78
:103BC00081F802C03E46032007E016F801CB01F859
:103BD00000C000F1010C1FFA8CF002F1030C6045EB
:103BE000F3DB9A420EDC1FFA8CF007E04FF01A0C60
:103BF00001F800C000F1010C1FFA8CF003F1030C76
:103C00006045F3DBF0BD30B502460023541802E0F6
:103C100012F8015B2B44A242FAD3D8B230BD70B582
:103C200005460E46002404E0285DFFF786FD601C73
:103C300084B2B442F8DB70BD2DE9F74FADF5A36D4A
:103C400000200190814600248046002606E0DDF831
:103C50001C05805D04A98855701CC6B2FF2EF6DBDA
:103C6000012001900DF5A46204A944A8FFF74CFFC0
:103C700000BF832144A8FFF7D2FF019860B18021E3
:103C80000DF21310FFF779FD05462812FFF755FDD9
:103C9000E8B2FFF752FD08E080210DF21310FFF7A4
:103CA000B2FF03900398FFF748FD42F2107102A89B
:103CB000FFF732FD70B99DF8080006280BD14FF0D0
:103CC000010808E00000010848000020540C002012
:103CD00050000020641CB8F1000F01D10A2CC8D399
:103CE0000A2C04D3E0B20DF2245DBDE8F08FDDF8BC
:103CF00018A5DDF820954FF0010B59E00BF0FF02FD
:103D00004B4644A95046FFF738FF4FF0000800200B
:103D10008DF80800002400BFB9F5806F02D34FF47E
:103D2000806700E08027F81C81B244A8FFF777FF86
:103D3000019860B139460DF21310FFF71EFD0546DC
:103D40002812FFF7FAFCE8B2FFF7F7FC08E0394663
:103D50000DF21310FFF757FF03900398FFF7EDFCE8
:103D6000544902A8FFF7D8FCC0B99DF808000628FE
:103D700014D14FF00108B9450CD9BA44A9EB070991
:103D8000BBF1C00F01D1FF20ADE70BF101001FFA1D
:103D900080FB04E0BA444FF0000900E0641CB8F175
:103DA000000F01D10A2CB7D30A2C01D3E0B29AE755
:103DB000B9F1000FA2D14FF0000800208DF80800E3
:103DC000002400BF0420FFF7B8FC42F2107102A8E3
:103DD000FFF7A2FC30B99DF80800062802D14FF089
:103DE000010800E0641CB8F1000F01D10A2CE9D3EE
:103DF0000A2C01D3E0B276E74FF0000800208DF8DE
:103E00000800002401208DF8100100208DF8110118
:103E1000FF208DF81201032604E0002044A98855F4
:103E2000701CC6B2832EF8DB00BF832144A8FFF7C5
:103E3000F6FE80210DF21310FFF79FFC05462812B5
:103E4000FFF77BFCE8B2FFF778FC42F2107102A8A2
:103E5000FFF762FC30B99DF80800062803D14FF047
:103E6000010800E0641CB8F1000F01D10A2CDCD37A
:103E70000A2C01D3E0B236E700BF0420FFF75DFC57
:103E800042F2107102A8FFF747FC30B99DF8080014
:103E9000062802D14FF0010800E0641CB8F1000FC1
:103EA00001D10A2CE9D30A2C01D3E0B21BE7002090
:103EB00019E70000A08601007047032A40F2308015
:103EC00010F0030C00F0158011F8013BBCF1020F5B
:103ED000624498BF11F801CB00F8013B38BF11F8DC
:103EE000013BA2F1040298BF00F801CB38BF00F8F3
:103EF000013B11F0030300F09180083AC0F0088004
:103F000051F8043B083A51F804CBA0E80810F5E753
:103F1000121D5CBF51F8043B40F8043BAFF3008036
:103F2000D20724BF11F8013B11F801CB48BF11F8AB
:103F3000012B24BF00F8013B00F801CB48BF00F87B
:103F4000012B70474FF0000200B513469446964689
:103F5000203922BFA0E80C50A0E80C50B1F120019C
:103F6000BFF4F7AF090728BFA0E80C5048BF0CC04A
:103F70005DF804EB890028BF40F8042B08BF7047A8
:103F800048BF20F8022B11F0804F18BF00F8012B1A
:103F9000704700004FF0013C50F8042B51F8043BEF
:103FA0009A4221D1A2EB0C03934313EACC1317D10D
:103FB00050F8042B51F8043B9A4215D1A2EB0C03A4
:103FC000934313EACC130BD150F8042B51F8043B64
:103FD0009A4209D1A2EB0C03934313EACC13DBD032
:103FE0004FF00000704700BFD01A01BAB1FA81F15A
:103FF00001F0180122FA01F0CB40C1F12001DBB23F
:10400000C0B2C01A2CFA01F3D11A914311EAC311BC
:10401000E6D17047704770477047704710B5203A37
:10402000C0F00B80B1E81850203AA0E81850B1E871
:104030001850A0E81850BFF4F5AF5FEA027C24BF27
:10404000B1E81850A0E8185044BF18C918C0BDE81E
:1040500010405FEA827C24BF51F8043B40F8043BE7
:1040600008BF7047D20728BF31F8023B48BF11F89C
:10407000012B28BF20F8023B48BF00F8012B7047F6
:10408000754600F029F8AE4605006946534620F013
:104090000700854618B020B5FCF7E0FBBDE82040DE
:1040A0004FF000064FF000074FF000084FF0000BF4
:1040B00021F00701AC46ACE8C009ACE8C009ACE8A7
:1040C000C009ACE8C0098D4670470446AFF30080D4
:1040D0002046FCF774F8000000487047540D00209B
:1040E0000041000800000020540000006C0100089E
:1040F00054410008540000206413000088010008A7
:104100000000000000A24A040000000000000000BF
:104110000102030406070809000000000000000077
:104120000000010203040102030406070809020457
:104130000608000000000000000000000000000071
:10414000000000000000000000000108000800005E
:04415000000000006B
:0400000508000131BD
:00000001FF
